:020000040000fa
:10000000f07f002055020000d3030000fb03000036
:1000100000000000000000000000000000000000e0
:1000200000000000000000000000000015040000b7
:10003000000000000000000015040000150400008e
:10004000150400001504000015040000150400004c
:10005000150400001504000015040000150400003c
:10006000150400001504000015040000150400002c
:10007000150400001504000015040000150400001c
:10008000150400001504000015040000150400000c
:1000900015040000150400001504000015040000fc
:1000a00015040000150400001504000015040000ec
:020000040000fa
:1000b000f8b5c046f8bc08bc9e4670473502000043
:1000c000f8b5c046f8bc08bc9e4670470d0200005b
:020000040000fa
:1000d0001e4a0023936113611d4a0821917107395b
:1000e00051711c4a13831100920dcb681342fcd04e
:1000f000194b1b689b0e9b02802292001343154aea
:10010000d3611100920dcb681342fcd0114b022237
:100110001a831900d201cb681342fcd00f4b104a4e
:100120001a62190004224b681a42fcd10b4a84233c
:100130005b004021d15010001900402243581a4260
:10014000fcd0044b00221a757047c04600100040d6
:1001500000040040000c00402060800000180040b7
:040160000701010092
:020000040000fa
:1001640000230e4a10b513600d4a13600d4a136044
:100174000d4a13600d4a13600d4a53621361013333
:10018400936000f047f900f045f90a4c0a4b9c4291
:1001940000d310bd08cc9847f8e7c0467000002093
:1001a4000c000020080000200000002004000020b3
:0c01b40010000020bc000000c000000093
:020000040000fa
:1001c00010b50e4b0e4a934207d30e480168002922
:1001d00007d14368002b04d110bd002119700133f1
:1001e000f1e704008368084a9bb20c349b009b58db
:1001f00042682000984780002018e7e700000020b0
:0c0200000000002004030000d4030000f4
:020000040000fa
:10020c0010b5064c2378002b07d1054b002b02d0e0
:10021c00044800e000bf0123237010bd50000020f3
:10022c000000000000000000044b10b5002b03d0b0
:10023c000349044800e000bf10bdc04600000000a8
:08024c00540000200000000036
:020000040000fa
:1002540010b50a4b98470a4b9847fff7afff094b75
:10026400ff229343084a9360084b9847084b9847ea
:10027400084b984700f010f8fee7c046170400004a
:10028400170400000000000000ed00e0650100001c
:0802940017040000170400002c
:020000040000fa
:10029c0070b5002000f060f8002200230849012608
:1002ac000025084c8020400102e0a06172402b0028
:1002bc0001339bb28b42fbd9002af6d06061f5e783
:0802cc0060ea00000028004078
:020000040000fa
:1002d4000a4b802252011a604c2202219954163a88
:1002e40000219954353ac6315a5403315a54b23222
:1002f400c13999540132783199547047002800402b
:020000040000fa
:100304005000002020000000000000000000002039
:1003140050000000000000007000002004000000f5
:100324000000000000000000000000006666666631
:020000040000fa
:100334008023db0500221a819a7901210a439a71ec
:100344009b7803221340022b08d08023db05013a5b
:0e0354009a701900013a8b791342fcd0704761
:020000040000fa
:020362007047e2
:020000040000fa
:1003640010b5094b06225a60fff7e2fffff7b0ff12
:10037400fff7acfe00f040f8fff7f1ff00f006f8dd
:0c03840000f040f810bdc04600400041f1
:020000040000fa
:10039000064b01221a7000221a715a719a60da60b3
:1003a000034919615a6102321a707047001c0043f8
:0403b0000204000142
:020000040000fa
:1003b400002310b5934206d103201840421e9041f9
:0e03c4009b08c01810bdc45ccc540133f2e796
:020000040000fa
:0203d200fee744
:020000040000fa
:1003d400e9030000b503000011040000110400004b
:0403e4001104000000
:020000040000fa
:1003e8008a18914201d10020704700230b70013117
:0203f800f7e725
:020000040000fa
:0203fa00fee71c
:020000040000fa
:0c03fc00014b84225a6070470040004111
:020000040000fa
:08040800bff35f8f62b670477d
:020000040000fa
:040410000020704711
:020000040000fa
:02041400fee701
:020000040000fa
:0204160070472d
:020000040000fa
:0204180070472b
:020000040000fa
:0200000400807a
:04400000770600b08f
:020000040000fa
:0200000400807a
:04400400bb00ffffff
:00000001FF
